:100000000C9463000C948B000C948B000C94B90539
:100010000C94B9050C94B9050C948B000C948B00CE
:100020000C948B000C948B000C948B000C94F804B3
:100030000C948B000C948B000C948B000C948B0014
:100040000C94AE040C948B000C947C040C94560419
:100050000C948B000C948B000C948B000C948B00F4
:100060000C948B000C948B000000000024002700EF
:100070002A0000000008000201000003040700003D
:1000800000000000000000000000250028002B00F8
:1000900000000000230026002900040404040404D6
:1000A0000404020202020202030303030303010227
:1000B00004081020408001020408102001020408F6
:1000C00010203306870811241FBECFEFD8E0DEBF13
:1000D000CDBF22E0AEE3B1E001C01D92AD37B20763
:1000E000E1F711E0A0E0B1E0E2EBF2E102C005903F
:1000F0000D92AE33B107D9F710E0C2E6D0E004C0EC
:100100002197FE010E94DE08C136D107C9F70E947F
:1001100014070C944C090C940000CF92DF92EF92DC
:10012000FF920F931F93CF93DF936C017A018B01A2
:10013000C0E0D0E0CE15DF0589F0D8016D918D01CA
:10014000D601ED91FC910190F081E02DC601099559
:10015000892B11F47E0102C02196ECCFC701DF91FB
:10016000CF911F910F91FF90EF90DF90CF90089566
:10017000FC01918D828D981761F0828DDF01A80FAF
:10018000B11D5D968C91928D9F5F9F73928F90E0D1
:1001900008958FEF9FEF0895FC01918D828D981740
:1001A00031F0828DE80FF11D858D90E008958FEF7D
:1001B0009FEF0895FC01918D228D892F90E0805C46
:1001C0009F4F821B91098F739927089586E991E0CB
:1001D0000E94DA0021E0892B09F420E0822F0895A3
:1001E000FC01848DDF01A80FB11DA35ABF4F2C91D4
:1001F000848D90E001968F739927848FA689B789A3
:100200002C93A089B1898C9180648C93938D848D7B
:10021000981306C00288F389E02D80818F7D80834A
:100220000895EF92FF920F931F93CF93DF93EC010A
:1002300081E0888F9B8D8C8D981305C0E889F989A2
:10024000808185FD24C0F62E0B8D10E00F5F1F4FBF
:100250000F731127E02E8C8DE8120CC00FB607FC2F
:10026000FACFE889F989808185FFF5CFCE010E9418
:10027000F000F1CF8B8DFE01E80FF11DE35AFF4F27
:10028000F0820B8FEA89FB898081806207C0EE894A
:10029000FF896083E889F98980818064808381E0B7
:1002A00090E0DF91CF911F910F91FF90EF90089513
:1002B000CF93DF93EC01888D8823C9F0EA89FB890D
:1002C000808185FD05C0A889B9898C9186FD0FC004
:1002D0000FB607FCF5CF808185FFF2CFA889B989D9
:1002E0008C9185FFEDCFCE010E94F000E7CFDF912A
:1002F000CF91089580E090E0892B29F00E94E600DC
:1003000081110C9400000895833081F028F481302D
:1003100099F08230A1F008958730A9F08830B9F0C3
:100320008430D1F4809180008F7D03C08091800063
:100330008F7780938000089584B58F7702C084B54D
:100340008F7D84BD08958091B0008F7703C0809128
:10035000B0008F7D8093B00008951F93CF93DF93FB
:10036000282F30E0F901EE58FF4F8491F901E25552
:10037000FF4FD491F901E656FF4FC491CC23C9F049
:10038000162F81110E948401EC2FF0E0EE0FFF1F69
:10039000EA57FF4FA591B4918FB7F894111105C09A
:1003A0009C91ED2FE095E92302C0EC91ED2BEC93AD
:1003B0008FBFDF91CF911F910895CF93DF9390E08E
:1003C000FC01E255FF4F2491FC01E656FF4F84915A
:1003D000882361F190E0880F991FFC01E859FF4FD5
:1003E000C591D491FC01EA57FF4FA591B4916111D9
:1003F00009C09FB7F8948881209582238883EC9167
:100400002E230BC0623061F49FB7F8943881822F9D
:10041000809583238883EC912E2B2C939FBF06C05D
:100420008FB7F894E8812E2B28838FBFDF91CF916F
:1004300008958E3008F08E508770806480937C0021
:1004400080917A00806480937A0080917A0086FDA2
:10045000FCCF809178002091790090E0922B089554
:100460003FB7F8948091880190918901A0918A0109
:10047000B0918B0126B5A89B05C02F3F19F00196BE
:10048000A11DB11D3FBFBA2FA92F982F8827820F1A
:10049000911DA11DB11DBC01CD0142E0660F771F6A
:1004A000881F991F4A95D1F70895CF92DF92EF9256
:1004B000FF92CF93DF93EC01603282E078070CF07B
:1004C0003DC077FD06C0653B71052CF064EB70E024
:1004D00002C060E070E0898128E830E06901C81A54
:1004E000D10887FDD394CC0CDD1CCC0CDD1C0D2C6D
:1004F000000CEE08FF088A8128E532E0281B31094C
:1005000087FD3395220F331F220F331FC901330F8D
:10051000AA0BBB0B9C01AD012C193D094E095F09CB
:10052000DB010E94130924EB30E040E050E00E9420
:10053000E908C20ED31EE41EF51EB60188818C3078
:1005400080F5998148E850E0491B510997FD539582
:10055000440F551F440F551F6417750784F09A8187
:1005600028E532E0291B310997FD3395220F331F0F
:10057000220F331FAB01261737070CF4A901425095
:100580005109440F551F2FB7F89490E0FC01EE0F6E
:10059000FF1F8E0F9F1FFC01ED5CFD4F52834183B7
:1005A0002FBFDF91CF91FF90EF90DF90CF90089514
:1005B0001F93CF93DF93EC01162F88818C3008F0C6
:1005C0004EC061E0812F0E94DD018881E82FF0E0BC
:1005D0009F01220F331FE20FF31FED5CFD4F1F73CE
:1005E0009081907C192B108319821A826CE00E94F2
:1005F000A3089CE0899FB001112440E050E09A01DB
:10060000260F371FF901EE0FFF1F2E0F3F1FF901B5
:10061000ED5CFD4F908196FD16C04F5F5F4F4C30F3
:10062000510569F781110FC01092800082E080931C
:1006300081001092850010928400B19A80916F0021
:10064000826080936F00E881F0E0CF01880F991FEE
:10065000E80FF91FED5CFD4F808180648083888105
:10066000DF91CF911F9108952091800130918101F8
:100670002817390771F490917F0180917E019817B6
:1006800041F0E0917F01F0E0E25CFE4F808190E07C
:1006900008958FEF9FEF089508951F93CF93DF93F1
:1006A000DC015C962D913C915D972115310539F463
:1006B00081E090E013969C938E9312973DC05196E3
:1006C000ED91FC91529750969C915097892F80956F
:1006D0001FB75E964C915E9741FB772770F941FDFD
:1006E0006095F8944081772311F0492B01C048238D
:1006F0004083E9012197F1F748E0508160FF02C093
:10070000592B01C058235083E9012197F1F76695D1
:10071000415099F7772321F090818923808303C08A
:100720008081982B90831FBF5C968D919C915D97E3
:100730000197F1F721E030E0C901DF91CF911F91DE
:10074000089520918001309181012817390771F4B3
:1007500080917E0120917F0190E0805C9F4F821B01
:10076000910960E470E00E94AF08089580E090E095
:100770000895209180013091810128173907B9F43B
:1007800090917F0180917E01981789F0E0917F011F
:10079000F0E0E25CFE4F808120917F0130E02F5F2E
:1007A0003F4F2F73332720937F0190E008958FEF01
:1007B0009FEF0895009769F0FC0101900020E9F790
:1007C0003197AF01481B590BBC0186E991E00C94AD
:1007D0008D0080E090E008958F929F92AF92BF923B
:1007E0000F931F93CF93DF93CDB7DEB7A1970FB6CB
:1007F000F894DEBF0FBECDBF19A2423008F44AE024
:100800008E010F5D1F4F842E912CA12CB12CA501C0
:1008100094010E941B09E62FB901CA010150110978
:10082000EA3014F4E05D01C0E95CD801EC93232BBD
:10083000242B252B61F7C8010E94DA03A1960FB67D
:10084000F894DEBF0FBECDBFDF91CF911F910F9106
:10085000BF90AF909F908F900895CF92DF92EF92CC
:10086000FF92CF93DF936B017C01E0919601F091B1
:1008700097010190F081E02D6DE286E991E0099504
:10088000EC0166277727CB016C197D098E099F093A
:100890004AE00E94EC038C0F9D1FDF91CF91FF90E7
:1008A000EF90DF90CF9008950E94E4081F920F927E
:1008B0000FB60F9211242F933F934F935F936F9333
:1008C0007F938F939F93AF93BF93EF93FF9386E9AB
:1008D00091E00E94F000FF91EF91BF91AF919F9145
:1008E0008F917F916F915F914F913F912F910F90D9
:1008F0000FBE0F901F9018951F920F920FB60F9278
:1009000011242F938F939F93EF93FF93E091A60170
:10091000F091A7018081E091AC01F091AD0182FDE1
:1009200012C090818091AF018F5F8F732091B001D1
:10093000821751F0E091AF01F0E0EA56FE4F958F3B
:100940008093AF0101C08081FF91EF919F918F91C2
:100950002F910F900FBE0F901F9018951F920F921E
:100960000FB60F9211242F933F938F939F93AF93C2
:10097000BF938091840190918501A0918601B091EF
:1009800087013091830123E0230F2D3720F4019656
:10099000A11DB11D05C026E8230F0296A11DB11DA2
:1009A000209383018093840190938501A093860115
:1009B000B09387018091880190918901A0918A016B
:1009C000B0918B010196A11DB11D80938801909378
:1009D0008901A0938A01B0938B01BF91AF919F9140
:1009E0008F913F912F910F900FBE0F901F901895F0
:1009F0001F920F920FB60F9211242F933F934F9394
:100A00005F936F937F938F939F93AF93BF93EF9376
:100A1000FF938091820187FF05C01092850010929C
:100A200084001BC020918201022E000C330B8091A8
:100A3000570290E02817390784F480918201082E2C
:100A4000000C990BFC01EE0FFF1F8E0F9F1FFC0186
:100A5000ED5CFD4F808186FD15C0809182018F5F26
:100A60008093820120918201022E000C330B809131
:100A7000570290E028173907C4F4809182018C3026
:100A800064F113C080918201082E000C990BFC01C7
:100A9000EE0FFF1F8E0F9F1FFC01ED5CFD4F80814D
:100AA00060E08F730E94AD01D8CF80918400909157
:100AB0008500049680349C4918F480E49CE905C0C4
:100AC0008091840090918500049690938900809392
:100AD00088008FEF809382013BC020918400309189
:100AE000850080918201082E000C990BFC01EE0F0D
:100AF000FF1F8E0F9F1FFC01ED5CFD4F81819281D6
:100B0000820F931F909389008093880080918201C7
:100B1000082E000C990BFC01EE0FFF1F8E0F9F1F7C
:100B2000FC01ED5CFD4F808186FF12C08091820147
:100B3000082E000C990BFC01EE0FFF1F8E0F9F1F5C
:100B4000FC01ED5CFD4F808161E08F730E94AD017F
:100B5000FF91EF91BF91AF919F918F917F916F9195
:100B60005F914F913F912F910F900FBE0F901F906B
:100B700018951F920F920FB60F9211242F933F9347
:100B80004F935F936F937F938F939F93AF93BF9395
:100B9000EF93FF93E0918001F0918101309709F488
:100BA00051C0968DA685B785858591FF04C09C911F
:100BB000892329F447C09C91892309F043C0A38964
:100BC000B4899C918589809589238C93868997899E
:100BD0000197F1F7608D718DA685B785558538E051
:100BE00020E0CB010197F1F7822F90E09595879552
:100BF000282F4C91452309F02068315091F7868DBC
:100C000081FD209580917E0190E001968F73992758
:100C100030917F01381749F0A0917E01B0E0A25CCD
:100C2000BE4F2C9380937E0103C0868D8160868F9A
:100C3000828D938D0197F1F7A389B4899C91858961
:100C4000892B8C93FF91EF91BF91AF919F918F91E1
:100C50007F916F915F914F913F912F910F900FBEB8
:100C60000F901F901895109299011092980188EE9C
:100C700093E0A0E0B0E080939A0190939B01A09351
:100C80009C01B0939D0128E031E0309397012093BF
:100C9000960125EC30E03093A3012093A20124ECCF
:100CA00030E03093A5012093A40120EC30E0309394
:100CB000A7012093A60121EC30E03093A9012093F5
:100CC000A80122EC30E03093AB012093AA0126EC7E
:100CD00030E03093AD012093AC011092AF0110923F
:100CE000B0011092B1011092B20110926102109203
:100CF00060028093620290936302A0936402B093B7
:100D0000650288E191E090935F0280935E02109209
:100D1000750210927402109277021092760210926D
:100D200079021092780210927B0210927A026091FE
:100D30007C026E7F6D7F60937C026695617081E0BE
:100D400068278AE00E94AD0161E08AE00E94DD012F
:100D5000E8EBF0E0E491E0936E02E4EAF0E0E49185
:100D6000F0E0EE0FFF1FEA57FF4F859194919093AB
:100D7000700280936F0260E089E00E94DD01809143
:100D80007C0281FD04C061E089E00E94AD0189E040
:100D900080936A02E7EBF0E0E491E0936B02E3EA10
:100DA000F0E0E491F0E0EE0FFF1FE057FF4F859178
:100DB000949190936D0280936C02809157028C30D5
:100DC000A0F491E0980F9093570280935B0290E01B
:100DD000FC01EE0FFF1F8E0F9F1FFC01ED5CFD4F0E
:100DE00088EB9BE09283818303C08FEF80935B024B
:100DF000809157028C30A0F491E0980F90935702A5
:100E00008093580290E0FC01EE0FFF1F8E0F9F1F92
:100E1000FC01ED5CFD4F88EB9BE09283818308959C
:100E20008FEF809358020895789484B5826084BDD2
:100E300084B5816084BD85B5826085BD85B58160DE
:100E400085BD80916E00816080936E00109281005C
:100E50008091810082608093810080918100816017
:100E600080938100809180008160809380008091D8
:100E7000B10084608093B1008091B0008160809364
:100E8000B00080917A00846080937A0080917A002B
:100E9000826080937A0080917A00816080937A00EA
:100EA00080917A00806880937A001092C10069E096
:100EB00070E08BE592E00E94D8026AE070E088E57D
:100EC00092E00E94D802E091A601F091A70182E091
:100ED0008083E091A201F091A3011082E091A4012E
:100EE000F091A5018FEC80831092AE01E091AA01F0
:100EF000F091AB0186E08083E091A801F091A90117
:100F0000808180618083E091A801F091A9018081B6
:100F100088608083E091A801F091A90180818068B8
:100F20008083E091A801F091A90180818F7D808369
:100F300060E08EE00E94DD0160E08FE00E94DD0154
:100F400062E080918C010E94DD01CC24CA9423E0F0
:100F5000D22EE12CF12C8EE00E94190220EB34E01D
:100F6000DC010E94C308A70196010E94E90829013B
:100F70003A0184E8480E83E0581E611C711C5092AF
:100F80009501409294018FE00E94190220EB34E019
:100F9000DC010E94C308A70196010E94E9084901EB
:100FA0005A0184E8880E83E0981EA11CB11C90921F
:100FB000930180929201B2018BE592E00E9455026A
:100FC000B40188E592E00E9455028EE00E94190269
:100FD00090939101809390018FE00E941902909369
:100FE0008F0180938E0140918C0150918D01552786
:100FF000FA01EE58FF4F8491FA01E255FF4FD49168
:10100000FA01E656FF4FC491CC2391F081110E9462
:101010008401EC2FF0E0EE0FFF1FE057FF4FA5918A
:10102000B491EC91ED2391E080E021F490E002C0D6
:1010300090E080E090938C0180938D0184E291E0B8
:101040000E94DA036091900170919101072E000CCB
:10105000880B990B97FF03C00E942D0403C04AE040
:101060000E94EC0388E291E00E94DA0360918E0115
:1010700070918F01072E000C880B990B97FF03C00E
:101080000E942D0403C04AE00E94EC038FE291E02D
:101090000E94DA0360918C0170918D01072E000C83
:1010A000880B990B97FF03C00E942D0403C04AE0F0
:1010B0000E94EC038BE391E00E94DA030E9430026D
:1010C0002B013C0184E6882E912CA12CB12C0E948E
:1010D0003002DC01CB0184199509A609B709883EC5
:1010E0009340A105B10558F021E0821A9108A108AA
:1010F000B10888EE480E83E0581E611C711C8114F3
:101100009104A104B10419F70E947A0124CF88E167
:1011100091E090935F0280935E02809180019091B4
:1011200081018E55924071F4E0917102F09172024A
:101130009081809173028095892380831092810130
:10114000109280010895991B79E004C0991F9617A9
:1011500008F0961B881F7A95C9F78095089597FB2C
:10116000072E16F4009407D077FD09D00E94CA0814
:1011700007FC05D03EF4909581959F4F089570959A
:1011800061957F4F08950E943D09B7FF0895821B26
:10119000930B0895AA1BBB1B51E107C0AA1FBB1FDD
:1011A000A617B70710F0A61BB70B881F991F5A95F3
:1011B000A9F780959095BC01CD010895EE0FFF1F12
:1011C0000590F491E02D099481E090E0F8940C945E
:1011D0004C09052E97FB1EF400940E94000957FD50
:1011E00007D00E941B0907FC03D04EF40C940009A1
:1011F00050954095309521953F4F4F4F5F4F089543
:1012000090958095709561957F4F8F4F9F4F089572
:101210000E943D09A59F900DB49F900DA49F800D45
:10122000911D11240895B7FF0C9408090E94080924
:10123000821B930B0895A1E21A2EAA1BBB1BFD0172
:101240000DC0AA1FBB1FEE1FFF1FA217B307E407A5
:10125000F50720F0A21BB30BE40BF50B661F771FFD
:10126000881F991F1A9469F76095709580959095DD
:101270009B01AC01BD01CF010895A29FB001B39FB6
:10128000C001A39F700D811D1124911DB29F700D8F
:10129000811D1124911D089510E0C2E6D0E004C024
:1012A000FE010E94DE082196C336D107C9F7F894E3
:0212B000FFCF6E
:1012B200010000000000000011018D00DA00B800FA
:1012C200CC005801000000004D038D00A103B903BA
:1012D20034034C03583A2000207C20593A20002045
:0E12E2007C20427574746F6E3A20000D0A0075
:107E0000112484B714BE81FFF0D085E080938100F7
:107E100082E08093C00088E18093C10086E0809377
:107E2000C20080E18093C4008EE0C9D0259A86E02C
:107E300020E33CEF91E0309385002093840096BBD3
:107E4000B09BFECF1D9AA8958150A9F7CC24DD24C4
:107E500088248394B5E0AB2EA1E19A2EF3E0BF2EE7
:107E6000A2D0813461F49FD0082FAFD0023811F036
:107E7000013811F484E001C083E08DD089C08234E0
:107E800011F484E103C0853419F485E0A6D080C0E4
:107E9000853579F488D0E82EFF2485D0082F10E0AE
:107EA000102F00270E291F29000F111F8ED06801E7
:107EB0006FC0863521F484E090D080E0DECF843638
:107EC00009F040C070D06FD0082F6DD080E0C81688
:107ED00080E7D80618F4F601B7BEE895C0E0D1E017
:107EE00062D089930C17E1F7F0E0CF16F0E7DF06D8
:107EF00018F0F601B7BEE89568D007B600FCFDCFD4
:107F0000A601A0E0B1E02C9130E011968C91119780
:107F100090E0982F8827822B932B1296FA010C0160
:107F200087BEE89511244E5F5F4FF1E0A038BF0790
:107F300051F7F601A7BEE89507B600FCFDCF97BE46
:107F4000E89526C08437B1F42ED02DD0F82E2BD052
:107F50003CD0F601EF2C8F010F5F1F4F84911BD097
:107F6000EA94F801C1F70894C11CD11CFA94CF0C13
:107F7000D11C0EC0853739F428D08EE10CD085E9AC
:107F80000AD08FE07ACF813511F488E018D01DD067
:107F900080E101D065CF982F8091C00085FFFCCF94
:107FA0009093C60008958091C00087FFFCCF809118
:107FB000C00084FD01C0A8958091C6000895E0E648
:107FC000F0E098E1908380830895EDDF803219F02E
:107FD00088E0F5DFFFCF84E1DECF1F93182FE3DFCA
:107FE0001150E9F7F2DF1F91089580E0E8DFEE27F6
:047FF000FF270994CA
:027FFE00040479
:0400000300007E007B
:00000001FF
